:020000040800F2
:102000000028002049320008000000000000000005
:10201000A9330008C1330008D933000800000000CC
:102020000000000000000000000000004532000831
:102030004532000800000000453200082D2200084B
:102040004532000845320008453200084532000894
:102050004532000845320008453200089129000841
:102060004532000845320008453200084532000874
:102070004532000845320008453200084532000864
:102080004532000845320008D130000845320008CA
:10209000AD240008453200084532000845320008EA
:1020A0004532000845320008453200084532000834
:1020B00045320008453200080000000045320008A3
:1020C0004532000800000000000000004532000812
:1020D0000000000045320008453200080000000002
:1020E0004532000845320008453200080000000073
:1020F00000000000000000000000000000000000E0
:1021000000000000000000005FF808F180B488B013
:1021100000AFB86079603A60BB68FB607B683B6188
:102120003B68FB61FB690F2B69D93A69FB6842EA9E
:10213000030303F00303002B63D1FB687B613B695E
:10214000BB6133E0BB691A687B691A607B6903F184
:1021500004037B61BB6903F10403BB61BB691A68BB
:102160007B691A607B6903F104037B61BB6903F13E
:102170000403BB61BB691A687B691A607B6903F160
:1021800004037B61BB6903F10403BB61BB691A688B
:102190007B691A607B6903F104037B61BB6903F10E
:1021A0000403BB61FB69A3F11003FB61FB690F2B07
:1021B000C8D80FE0BB691A687B691A607B6903F1B4
:1021C00004037B61BB6903F10403BB61FB69A3F1F9
:1021D0000403FB61FB69032BECD87B69FB60BB69E3
:1021E0003B610FE03B691A78FB681A70FB6803F1EA
:1021F0000103FB603B6903F101033B6102E000BFA7
:1022000000E000BFFB69002B0CBF00230123DBB201
:10221000FA6902F1FF32FA61002BE3D1BB6818467C
:1022200007F12007BD4680BC704700BF00B500F035
:1022300083FD00BDF0B52E4F85B002AE0323012112
:102240002C48039301F07CF94FF0E0021823384644
:1022500031460124ADF80820049301F00BF9002366
:10226000384631460493ADF8084001F003F90223E3
:10227000482238463146ADF8083001931E4D04928D
:1022800001F0F8F84FF0040C4FF0080238463146E0
:10229000CDF810C0CDF800C0ADF8082001F0EAF884
:1022A0004FF00702ADF80820284614223146049268
:1022B00001F0E0F84FF40572ADF80820384610221E
:1022C0003146049201F0D6F8019B28461946224671
:1022D00001F030F928462146224601F02BF9DDF8BD
:1022E00000C028466146224601F024F905B0F0BD41
:1022F0000008014000013000000C014000B500F072
:10230000D7FF042001F0BAFB002001F069F9012198
:102310004FF4000001F086F9012141F20D2001F097
:1023200073F94120012101F061F900BD00B54FF0C2
:102330000060024901F096FB00BD00BF00200000D4
:1023400083B01E4B03AC93E8060024E90600FFF7B8
:10235000D5FFFFF7EBFF4FF4C06001F049FB2046CB
:1023600001F050FBFFF766FF154A4FF4FA6312685D
:102370006FF00F01B2FBF3F222F07F42114B013AF2
:102380005A60114A002482F8231007229C600F48EB
:102390001A601431224601F0CDF8042101220B48C5
:1023A00001F0C8F800F0B4FB00F0EAFE0848094963
:1023B000094A2346009401F0A7FBFEE74C490008B8
:1023C000F04A000810E000E000ED00E000080140E5
:1023D0003C4A0008644A0008404A0008174A184B63
:1023E00030B51B68116804321068C01825D0154B31
:1023F000002403F110051A464FEA107CBCF1090FC6
:1024000094BF0CF1300C0CF1370C82F802C0D47080
:102410000232AA4201D00001EEE7DFF82CC0002012
:102420000A0F092A01D8303200E037329A74D87482
:102430000233634501D00901F2E730BDECF7FF1F1D
:10244000E8F7FF1F000000200800002000B528B1B9
:1024500005484FF4007101F065F804E002484FF4BC
:10246000007101F063F800BD0008014010B5084C90
:102470000320214601F022FB064B18601968204614
:10248000C9B200F053FD032002F080F910BD00BF77
:102490009802002070000020034B002200B51A7043
:1024A00000F0AEFD00BD00BF88020020194B00B552
:1024B0001A68194B92B21A80184A1B88128802EACD
:1024C000030313F4004F01D001F04EFB124B134AEB
:1024D0001B88128802EA030313F4806F06D00D4BA9
:1024E0004FF6FF321A600E4B5B6898470A4B0B4A57
:1024F0001B88128802EA030313F4007F08D0054BFF
:102500004FF6FF521A60074B1A780132D2B21A7096
:1025100000BD00BF445C00402409002020090020C9
:10252000644A000874000020034B9B7C13B1034BEA
:1025300005221A60704700BFF008002078000020D4
:10254000014B04221A60704778000020034B1A7870
:10255000202A01D100221A70704700BF75000020A8
:10256000704700BFC0B2212800B509D1124B1B68CB
:102570001B7803F07F03212B08BF104B19D10EE00D
:10258000202816D10C4B0E4A1B681B7803F07F03E2
:10259000212B0CBF134600230A4A10704BB1064A88
:1025A0004FF0000112680020136251839847002009
:1025B00000E0022000BD00BF1C090020FD2500082E
:1025C0001926000875000020074BC0B21B681B7855
:1025D00003F07F03212B05D1022801D0222801D14D
:1025E000002000E0022070471C090020C3B2C8B2DE
:1025F00008B9012B00D90220704700BF80B228B96A
:10260000034B4FF008021B681A8300E00148704733
:102610001C0900201C00002080B228B9034B4FF099
:1026200008021B681A8300E0014870471C0900205B
:102630001C00002000B5074B80B21B685B79042B9F
:1026400001D9002004E0044901EBC30101F0ACFC16
:1026500000BD00BF1C090020144A000800B5024953
:1026600080B201F0A1FC00BD344A000800B5024967
:1026700080B201F099FC00BD0C4A0008324B334A8D
:102680001B68D27910B500245A749C74DC742046FF
:1026900002F016F820464FF4007102F01BF81021EA
:1026A000204602F027F84021204602F0D3F880218E
:1026B000204602F0BDF8204602F07CF8402120467A
:1026C00002F00AF9204602F061F80120214602F0EA
:1026D00001F80120C02102F0ABF80120202102F016
:1026E00009F80120214602F021F802204FF4C061D0
:1026F00001F0F0FF02204FF4807102F099F80220FF
:10270000214602F013F80220202101F0F3FF0320FC
:10271000214601F0DFFF03204FF4887102F09AF8A0
:102720000320402102F0D8F803204FF4405101F07B
:10273000FDFF0320214601F0DDFF204601F042FCB1
:10274000034B01221A6010BD1C090020C849000873
:102750007800002010B5FFF741FE054B00241B68F0
:102760009C7400F009F801F099F9024B1C6010BD4F
:102770001C09002078000020012000B5FFF766FE4C
:10278000064B01221A60064A0020064918601060B4
:102790004FF4E0520A801A6000BD00BF405C004068
:1027A000445C00402009002030B5094C1021002273
:1027B00085B2204600F0BEFE284600F04BFC1021FA
:1027C00005460122204600F0B5FE284630BD00BF78
:1027D00000080140F0B5254B0C461B7887B2022B50
:1027E00014BF00260126052B08BF46F00106D5B20E
:1027F000002E21D001201EE0A15D9A19D171A25DA9
:102800000136BF18FFB2F2B2AA42F5D3184B6FF0EF
:1028100055025B19FF431A72DF71164B09351D70A3
:10282000154B00241C704BF6AA00FFF7BDFF0F4BA1
:1028300005221A702046F0BD48F23920FFF7B4FF98
:102840000B4B6FF055021A705A7083329A700B4A14
:102850009D711178FAB2D9705A313F0A1A718A18EB
:102860005F71D7197F1907F0FF07CCE77F000020C1
:10287000800000208202002081020020240000202D
:1028800000B54FF43040FFF78FFFC0B200BD00BF6E
:1028900000B54CF68720FFF787FF48F2D920FFF7F5
:1028A00083FF024B02221A7000BD00BF7F00002090
:1028B000C0B2612800B503D14CF68720FFF774FF42
:1028C00048F2D920FFF770FF034B00221A70034B28
:1028D00003321A7000BD00BF810200207F0000207B
:1028E00080B2A0F160039BB2B3F56E6F00B503D266
:1028F00040F42040FFF758FF064B1B78022B07D10E
:102900004CF68120FFF750FF4CF68320FFF74CFF79
:1029100000BD00BF7F00002010F0030000B506D00E
:10292000030148F2C70043EA0000FFF73DFF00BD86
:1029300010B5C4B234B94CF68B20FFF735FF4CF616
:102940002D6005E04CF68320FFF72EFF44F44E4047
:10295000FFF72AFF10BD00BF034BC0B200B51870CF
:10296000FFF7E6FF00BD00BF2400002000B5064BC6
:102970001878FFF7DDFF48F20920FFF715FF034B3A
:1029800001221A7000BD00BF240000207F0000203B
:10299000022030B500F068FD0020FFF705FF454B31
:1029A00010F4004F188000F08480434D2B785A1E9D
:1029B000D2B2012A06D84FF43040FFF7F5FE3F4B64
:1029C000187076E0032B20D14FF43040FFF7ECFE77
:1029D0003A4BC0B23A4C187000F0CAFA00F010FB43
:1029E00023780133DBB2042B237062D9354A127984
:1029F00006329A425DD148F20920FFF7D5FE48F22F
:102A0000D920FFF7D1FE002352E0042B33D12C4C08
:102A10004FF430402578FFF7C7FE2A4923782A4A29
:102A20004855C85C11780133DBB24118022B117094
:102A3000237003D12548012100F044FF204B1A7870
:102A4000042A36D91F4C23790633934231D11E4ACA
:102A50001178E25CC943CBB29A422AD1FFF786FFD4
:102A6000A179201D0331C9B200F0AAFA00F0C8FA1A
:102A700000F0BCF81DE0052B1BD1114C144A237843
:102A800012789A420CD148F2D920FFF78DFE042328
:102A90000D4A2B7000232370137000F0BDF808E07E
:102AA000084AD05C40F43840FFF77EFE23780133BB
:102AB000237030BD7C0000207F0000207E000020BD
:102AC00081020020800000208002002000240140BC
:102AD0008202002049F2024300F0070000B543EAF9
:102AE0004010FFF761FE00BD00F00F00000100B5CF
:102AF00040F41840FFF758FE00BD00BFC0B20028E8
:102B000008BF012000B540F44640FFF74DFE00BD70
:102B10001FB5294B6C460FCB84E80F0000F0ACFAD0
:102B20000121002000F03EFD684600F061FC2348D2
:102B300000F068FF0020FFF737FE48F20120FFF7A2
:102B400033FE4FF43840FFF72FFE1D48022100F0FE
:102B5000E1FC0028F7D00220FFF7DEFE4FF4C8604A
:102B6000FFF7BEFE0620FFF7C9FF0520FFF7B2FF03
:102B70004CF2AC20FFF718FE124B1878FFF7D8FE86
:102B80004CF28340FFF710FE0520FFF7ADFF4CF637
:102B90007740FFF709FE4FF46040FFF705FE4FF462
:102BA0004840FFF701FE4CF24900FFF7FDFD002011
:102BB000FFF7DCFE1FBD00BF944A0008280000207C
:102BC000000801402400002010B5074CFFF7CEFE9E
:102BD00020460221012200F0ADFC20460421012202
:102BE00000F0A8FC10BD00BF000C0140064A074BD6
:102BF000128800B51A80064B00221A70054802217F
:102C0000013200F097FC00BD300000208602002059
:102C100083020020000C0140084A10B5084B1288BE
:102C2000084C01211A8020460A4600F083FC204609
:102C30000221002200F07EFC10BD00BF3200002007
:102C400086020020000C014010B5074CC0B2FFF70F
:102C50002FFE20460221002200F06CFC20460421B9
:102C6000002200F067FC10BD000C014010B5084CBC
:102C7000002000F06DFAFFF779FE204602210122C4
:102C800000F058FC012120460A4600F053FC10BD1C
:102C9000000C0140DFF884C04FF06003ACF8003056
:102CA0001F4B10B540F63F741C801E4B80B24FF096
:102CB00060041C80A0F16004A4B240F6DE6E74458E
:102CC0009CBFACF80000188089B2B0F5746F2CBFBF
:102CD00000200120602994BF002000F0010092B282
:102CE00008B10F4B1980104B1A800C4B1888FFF756
:102CF000F7FDFFF7CDFD012000F02AFA0B4A0C4B3F
:102D0000128802211A800B48002200F013FC0948A7
:102D10000121002200F00EFC10BD00BFE0040020E5
:102D2000D8020020DC020020DA020020340000205B
:102D300086020020000C0140194BF0B51A880AB138
:102D4000013A1A80164E3588012D27D1154F3C784F
:102D50008CB9154802212A4600F0ECFB12480421E8
:102D60002A4600F0E7FB104829462A4600F0E2FB1D
:102D70000E4B1C8012E0022C0CD10B4804210022C7
:102D800000F0D8FBFFF7F2FD094B1B8833800023CE
:102D90003B7003E0012C01D100F0D2F9F0BD00BF7F
:102DA0008602002083020020000C014084020020E3
:102DB0003000002030B5544D2C78012C05D1002373
:102DC0002B70FFF753FF20469CE0032C04D1002317
:102DD0002B70FFF7F9FE92E0002C40F092804B4BF5
:102DE0001988002900F08D80494C2378722B44D03B
:102DF00007D8632B49D0652B5FD0612B40F08180D1
:102E000005E0742B67D017D3772B7AD15CE00629C5
:102E100077D93F4B5A789878197942EA0020DA78C6
:102E200042EA01219A795B7943EA0222FFF732FFF5
:102E3000354B0120187065E0042962D9E37803332B
:102E40008B425EDA33480121002200F073FB3148E7
:102E50000221012200F06EFB2F4A2D4912882F4BD0
:102E600088781A804B78CA7843EA00200431FFF74B
:102E7000B1FC254B02221A7041E0012941D960784A
:102E8000FFF7E2FE03232B7039E0072939D9607878
:102E9000FFF742FDA378E07843EA0020FFF720FD2A
:102EA0002079FFF72BFE6079FFF71EFEA079FFF770
:102EB00011FEE079FFF750FD21E0012921D9C9B2C7
:102EC000204600F07DF803E0154B188800F062F80A
:102ED00000F096F813E0062913D96378A27843EA44
:102EE0000222104B1A80E378227943EA02220A4B2D
:102EF0001A806379A27943EA02220B4B1A800120DF
:102F000000E0002030BD00BF8302002084020020CA
:102F1000E0020020000C0140320000208602002068
:102F2000E4080020300000203400002030B50C4CB4
:102F3000034622880B48CDB2801819462A46FFF76F
:102F4000E5F82388084AED181288084B25801A8076
:102F5000FFF730FF10B14FF00003238030BD00BFFA
:102F600084020020E00200203000002086020020C1
:102F70000549064B0968DFF818C01A68614488548F
:102F800001321A60704700BF8C02002090020020BE
:102F9000E4040020074B08491A680968DFF81CC0E0
:102FA000511880B20CF8010002326144000A4870E6
:102FB0001A607047900200208C020020E404002078
:102FC0000C4B10B5D3F800C00B4BC9B21A680B4BB1
:102FD00062449A18002303E0C45C013302F8014CF8
:102FE000DCB201328C42F7D3024B8C44C3F800C0F0
:102FF00010BD00BF900200208C020020E4040020DD
:10300000104B30B51A68DAB10F4B1978C1B90F4CB3
:103010000131197023680E493F2A94BFD5B240256B
:10302000C918812000F05CFD012001F09BFB2368A2
:10303000EB182360034B1A68551B1D6005B925600A
:1030400030BD00BF90020020880200208C020020CA
:10305000E4040020074A80B21189064B11F0020FE8
:10306000FAD098811A8912F0010FFBD0014B988990
:1030700080B270470030014010B54FF4827285B0C5
:10308000ADF80220114C4FF400620023ADF804208B
:103090004FF40072ADF80030ADF80630ADF80830EE
:1030A000ADF80A20ADF80E304FF020024FF00703C4
:1030B00020466946ADF80C20ADF8103000F0CEFA8D
:1030C0002046012100F0F8FA05B010BD00300140A3
:1030D00030B5144C144D4FF40871204600F056FCE6
:1030E0002888FFF757FFE06C80B2FFF753FFFFF728
:1030F00087FF0E4B1A882B88D3180D4A9BB2128873
:103100002B809A423EBF0B4B1B882B80064B1888A6
:10311000FFF7E6FBFFF7B4FB074A084B12881A805B
:1031200030BD00BF00240140E0040020DA0200208E
:10313000D8020020DC02002034000020860200209B
:1031400000B50248012100F0BDFB00BD0024014094
:103150004FF4087110B5C4B2084800F017FC012CF8
:1031600003BF06484FF40871224604481CBF4FF4C1
:103170000871002200F088FB10BD00BF0024014050
:1031800000B52B4B93B0DFF8ACE00DF12C0C93E8BD
:10319000060011911292BEE80F00ACE80F009EE805
:1031A0000300DFF894E08CE80300BEE80F00EC4673
:1031B000ACE80F00BEE80F00ACE80F009EE8070087
:1031C0008CE807001D4800F085FA1C48694600F0AD
:1031D000EBFA0121194800F013FB11A800F012FCD2
:1031E000174800F0D9FB16480BA900F013FB144850
:1031F000012100F03FFB124800210122072300F0CB
:103200006BFB0F48012100F02BFB0D4800F046FB43
:103210000B4800F049FB0028FAD1094800F048FBB0
:10322000074800F04BFB0028FAD113B000BD00BFE7
:10323000E84A0008D04A0008A44A000808000240F2
:1032400000240140FEE700BF684620F007018D46DC
:10325000002381B00093104B02E0009A01320092EB
:10326000009A9A42F9D900230C4A0D480D4904E00E
:1032700051F803C042F803C0043302EB030C844549
:10328000F6D3094B0949002201E043F8042B8B4295
:10329000FBD3FFF755F8FEE71FA107000000002051
:1032A00070000020F44A0008700000202C09002063
:1032B000394B82B01A6842F001021A605968374AE5
:1032C00001EA02025A601A6822F0847222F4803203
:1032D0001A601A6822F480221A605A6822F4FE02E8
:1032E0005A604FF41F029A60A2F51F0201920092E9
:1032F0001A6842F480321A601A6802F400320092AE
:10330000019A01320192009A1AB9019AB2F5A06F9E
:10331000F2D1214B1B6813F4003318BF0123009333
:10332000009B012B35D11E4B1A6842F010021A6027
:103330001A6822F003021A601A6842F002021A6048
:10334000A3F580535A685A605A685A605A6842F422
:1033500080625A605A6822F47C125A605A6842F4B9
:10336000E8125A601A6842F080721A6019680A4AB4
:1033700011F0007FFAD0536823F0030353605368C1
:1033800043F002035360536803F00C03082BFAD197
:1033900000E0FEE702B07047001002400000FFF8B6
:1033A00000200240FEE700BF1EF0040F0CBFEFF349
:1033B0000880EFF309808169004A1047A5330008AF
:1033C0001EF0040F0CBFEFF30880EFF30980816952
:1033D000004A1047A53300081EF0040F0CBFEFF39E
:1033E0000880EFF309808169004A1047A53300087F
:1033F000C36810B501684268002B2CD0194B6FEAE6
:10340000010C1C680CEA04041C605C680CEA040CE7
:10341000C3F804C053F802C04CEA01019950026895
:10342000D3F808C0D14301EA0C0CC3F808C0D3F8A4
:103430000CC001EA0C01D960816810291EBFC85870
:103440000243CA500CD1996811439960D96841EA86
:103450000202DA6004E0034B985820EA0101995017
:1034600010BD00BF00040140014B5861704700BF10
:10347000000401408B68F1B513F0100F18BF4A68C3
:10348000098803F00F0C18BF4CEA020C11F0FF0F73
:103490001CD004680022012515FA02F606EA01058F
:1034A000B5420FD197000F26BE400CFA07F724EA69
:1034B00006043C43282B009608BF456102D0482BE8
:1034C00008BF05610132082AE5D10460FF2920D92F
:1034D000446800220091012102F1080611FA06F663
:1034E000009906EA0105B5420FD197000F2111FAA4
:1034F00007F60CFA07F724EA06043C43282B08BF1A
:10350000456102D0482B08BF05610132082AE2D18B
:103510004460F8BD836889B219420CBF00200120C5
:10352000704700BF89B20161704700BF89B2416135
:10353000704700BF89B20AB1016100E04161704784
:10354000020410B5DFF858C000F44014120CB4F5B2
:10355000401FDCF8043008D1DCF8044023F070632D
:1035600024F07064CCF8044012E010F4801F02BF15
:103570004FEA505C4FEA0C1C02FA0CFC04D0C0F37A
:10358000034C032404FA0CFC23EA0C0343F070639D
:1035900019B1400D000182401343014A536010BD30
:1035A00000000140C9B201F0030292004FF00F0C7D
:1035B0000CFA02FCC0B210FA02F2084B8908023180
:1035C00010B553F8214024EA0C0C43F821C053F8FD
:1035D00021C042EA0C0243F8212010BD0000014046
:1035E000014B1860704700BFD800424219B1054B2B
:1035F0005A69104303E0034B5A6922EA00005861FC
:10360000704700BF0010024019B1054B9A69104382
:1036100003E0034B9A6922EA00009861704700BFFB
:103620000010024019B1054BDA69104303E0034B67
:10363000DA6922EA0000D861704700BF001002403A
:1036400019B1054BDA68104303E0034BDA6822EA4C
:103650000000D860704700BF00100240B1F802C0FF
:103660000B8802884CEA0303B1F804C002F441520B
:1036700043EA0C03B1F806C043EA0C03B1F808C0F2
:1036800043EA0C03B1F80AC043EA0C03B1F80CC0DA
:1036900043EA0C03B1F80EC043EA0C0342EA030309
:1036A0009BB20380838B23F400631B041B0C838376
:1036B0000B8A0382704700BF21B103889BB243F09D
:1036C000400304E0038823F040031B041B0C038029
:1036D000704700BF036823F0010303600023036009
:1036E00043608360C360244B98421ED0234B9842B2
:1036F00023D0234B984228D0224B98422DD0224BE6
:10370000984232D0214B984204D16C3B5A6842F423
:1037100070022EE01E4B984204D1803B5A6842F062
:10372000706226E01B4B984204D1083B5A6842F075
:103730000F021EE0184B984204D11C3B5A6842F01D
:10374000F00216E0154B984204D1303B5A6842F41F
:1037500070620EE0124B984204D1443B5A6842F426
:10376000704206E00F4B984204D1583B5A6842F42D
:1037700070225A60704700BF080002401C000240DF
:103780003000024044000240580002406C000240F9
:1037900080000240080402401C0402403004024041
:1037A0004404024058040240D1F820C08A680368EB
:1037B0004CEA0202D1F810C023F4FE4342EA0C02A4
:1037C000D1F814C023F0F00342EA0C02D1F818C07B
:1037D00042EA0C02D1F81CC042EA0C02D1F824C023
:1037E00042EA0C02D1F828C042EA0C0242EA030382
:1037F0000360CB6843600B6883604B68C3607047AD
:1038000019B1036843F0010302E0036823F00103E8
:103810000360704743684A6823F4702323F480737D
:1038200043EA02230A68134343600B69CA68D0F86D
:1038300008C01A43094B0CEA030342EA03038A68EF
:1038400043EA420383600B7DC26A013B22F47002AB
:10385000DBB242EA0353C362704700BFFDF7F1FFDA
:1038600019B1836843F0010302E0836823F0010388
:103870008360704719B1836843F4807302E0836802
:1038800023F4807383607047C9B212B1436819434F
:1038900002E0436823EA010141607047836843F016
:1038A00008038360704700BF8068C0F3C0007047A2
:1038B000836843F004038360704700BF8068C0F3EF
:1038C0008000704719B1836843F4A00302E0836865
:1038D00023F4A00383607047C9B2092930B5D2B27E
:1038E000DBB212D94FF0030C0CFB01FC0724ACF146
:1038F0001E0C04FA0CF403FA0CF3C56825EA040460
:1039000044EA030CC0F80CC00EE04FF0030C0CFBB3
:1039100001FC072404FA0CF403FA0CFC056925EAFF
:10392000040444EA0C030361062A0ED80523013A75
:1039300003FB02F21A3393409140D0F834C02CEAD2
:10394000030343EA010141631EE00C2A0ED805235C
:1039500003FB02F21A33233A93409140D0F830C06F
:103960002CEA030343EA010101630DE0052303FB95
:1039700002F21A33413A93409140D0F82CC02CEA1D
:10398000030343EA0101C16230BD00BFC1F3072157
:10399000C9430160704700BF124B00B5984207D180
:1039A0004FF400700121FFF74BFE4FF4007014E05C
:1039B0000D4B984207D14FF480600121FFF740FE84
:1039C0004FF4806009E0094B984209D14FF4004060
:1039D0000121FFF735FE4FF400400021FFF730FED4
:1039E00000BD00BF0024014000280140003C014010
:1039F00040F0BE60024B40F42020D860704700BF0A
:103A000000ED00E042680378EAB1144A90F801C082
:103A1000D2688078D243C2F30222C2F104010CFAC8
:103A200001FC0F21D140014041EA0C010C4A09017F
:103A30009A18C9B282F800135909012203F01F0332
:103A400012FA03F306E05909012203F01F0312FAE8
:103A500003F32031024A42F82130704700ED00E0C4
:103A600000E100E021F0604121F07F01024B41EADA
:103A700000009860704700BF00ED00E004280BBF15
:103A8000054B054B1A681A680CBF42F0040222F07D
:103A900004021A60704700BF10E000E0044B0020F1
:103AA000044A18604FF406431380034A13607047BA
:103AB000445C004020090020405C004070B500F0EC
:103AC0007F0528460E4600F029FF0446284600F0F0
:103AD000E3FE22460146304600F02CF9204670BD38
:103AE00070B500F07F0528460E46144600F0C4FE6F
:103AF000A4B201462246304600F000F9284621468D
:103B000000F0DAFE002070BDF0B50C4605990646BF
:103B100017461D4619B10C481C22FEF7F7FA25B1CD
:103B20000A4829461C22FEF7F1FA094B094A1E6091
:103B3000094B136002221A74084B1C60084B1F606B
:103B400023689847F0BD00BF5400002038000020D3
:103B5000180900201C090020F0080020E8080020B7
:103B600014090020704700BFF1B54FF00002ADF816
:103B70000220594F594EA4E03B8803F00F033370E5
:103B8000002B6DD1564C574D23689BB22B802A8851
:103B9000554B02F030021A802B8803F440532B80DF
:103BA00022684BF6BF7302EA030342F2200253403D
:103BB00043F4004343F0800323603B8813F0100F6D
:103BC00008D1226848F60F7302EA0303236000F06D
:103BD00023FB1EE023689BB2ADF80230BDF8023033
:103BE00013F4006F08D0226840F68F7302EA0303D3
:103BF000236000F0E3FB0CE0BDF802301BB2002BA9
:103C00005FDA226840F68F7302EA0303236000F054
:103C100025FA22684BF6BF7302EA03032A8812F4DE
:103C2000805F304A18BF83F48053128812F4005F1B
:103C30002D4A18BF83F40053128812F0100F2A4A3D
:103C400018BF83F01003128812F0200F274A18BF04
:103C500083F0200343EA0202214B92B21A6039E05A
:103C60009B0003F1804303F5B8431A6892B2ADF8A4
:103C70000220BDF8022012B2002A0BDA196840F6C1
:103C80008F7201EA02021A603378194A013B52F836
:103C900023309847BDF8023013F0800F11D03378ED
:103CA00048F60F729B0003F1804303F5B84319688F
:103CB00001EA02021A6033780E4A013B52F82330BF
:103CC00098470D4A13689BB23B803B881BB2002B80
:103CD000FFF652AFF8BD00BF24090020EC08002019
:103CE000005C004022090020260900208080FFFFA0
:103CF0005400002038000020445C004089B292B299
:103D000001F10051013201F5405110B5490052084E
:103D100000230BE000EB030C9CF8014010F803C0FB
:103D2000013A4CEA042C21F813C00233002AF1D1E5
:103D300010BD00BF89B292B201F10051013201F50C
:103D4000405110B549005208002304E031F81340F7
:103D5000013AC4520233002AF8D110BD80B210B526
:103D6000064C20B923684FF001021A8305E0044B8A
:103D70001B681B6898472068123010BD1C09002082
:103D80001409002010B50A4B0A491B6809685A79C2
:103D9000497891420AD3197941B91C8934B99A7486
:103DA000054B1B685B689847204600E0022010BD69
:103DB0001C090020180900201409002080B210B549
:103DC000064C20B923684FF001021A8305E0044B2A
:103DD0001B689B6898472068143010BD1C090020A0
:103DE0001409002030B50E4A0E4C12682368587A28
:103DF00059799369984723689A7C7AB170B91A7A8D
:103E000062B91D7955B9084B1B68DB689847236870
:103E100028465A7ADA745A791A7500E0022030BDC1
:103E2000E80800201C0900201409002080B200B519
:103E3000254B20B91B684FF002021A8342E0234849
:103E40004FF000021B6802801A7812F07F0215D131
:103E50005B7C027813F0200F14BF42F0020222F0C4
:103E6000020213F0400F194B027015BF1A781A782E
:103E700042F0010222F001021A701EE0012A21D054
:103E8000022A01D000201DE05A7A12F0800F02F0C1
:103E90000F0306D00E4A52F8233003F03003102BE4
:103EA00006E00B4A52F8233003F44053B3F5805F29
:103EB00002BF037843F001030370064B1B681B69C4
:103EC0009847024800BD00BF1C09002028090020B7
:103ED000005C00401409002000B5264BDFF898C0B4
:103EE0001968DCF800C04A7A9CF800C012F0800F14
:103EF00014BF2248214822F0800315BF50F8230048
:103F000050F8230000F0300000F4405063452FD2F9
:103F1000B1F804C0BCF1000C18BF4FF0010C002830
:103F200014BF60464CF0010010BB897C01B312F055
:103F3000800F15BF1149114951F8230051F8230092
:103F400015BF48F6BF724BF68F720240024014BF95
:103F500082F0100282F4805242F4004242F0800269
:103F600041F82320064B1B689B699847002000E01E
:103F7000022000BD1C09002018090020005C004040
:103F80001409002000B5064B1B685A7C42F0200241
:103F90005A74044B1B68DB699847002000BD00BFC2
:103FA0001C09002014090020054B80B21A68538BAD
:103FB00018B98988CB1A138301E00868C0187047C4
:103FC0001C09002030B5114BC0B21B681C780023BF
:103FD00014E05FFA83FC4FEA8C0202F1804202F5A2
:103FE000B84215684CF4004C40F60F714CF0800C50
:103FF00005EA01014CEA010111600133A342E8D353
:10400000034B40F08000186030BD00BF180900204D
:104010004C5C0040704700BF00B50C4B00201B6893
:1040200093F82C1000F058FC094B1B68187C0828EA
:1040300007D1084B4FF480521A80074B4FF0100203
:104040001A80092814BF0020012000BDE8080020C4
:104050001C0900202209002026090020F0B5394B58
:104060001C68237C022B14BF00260126042B08BFEA
:1040700046F00106002E5DD1032B14BF0022012261
:10408000052B08BF42F00102002A4DD0236A228B83
:10409000191E18BF0121002A0CBF002101F00101E7
:1040A000A1B1A58B954228BF154628469847238B7A
:1040B00007465B1B2383638B3046EB18638300F05A
:1040C000EBFB2A4601463846FFF734FE238B5BB1F3
:1040D0001D4B4FF4405200201A80014600F0ECFBCB
:1040E0001A4B4FF030021A80238BA28B9A4203D8CE
:1040F000144B03221B6803E0124A1BB1136805220C
:104100001A740DE0126806211174114A1168114ADF
:1041100089B28A18520013600C4B4FF030021A809B
:10412000084B1B681B7C06E0072B03D10A4B1B685E
:10413000DB6898470823034A12681374FFF76CFF83
:10414000F0BD00BF1C090020220900202609002024
:10415000505C004002300020E8080020F1B5284BF8
:104160001C68238B267CD3F1010238BF0022042E69
:1041700014BF002602F00106B6B12249224A0B788C
:104180006BB1224B04271868214B80B2C3185B0027
:10419000002018604FF03003138008702CE04FF0BF
:1041A00010031380072727E0A58BAB4294BF042799
:1041B00002279D4228BF1D462846236A984703468A
:1041C0003046009300F058FB009B2A4601461846F3
:1041D000FFF794FD2946304600F06EFB238B4FF02D
:1041E00030025B1B2383638BED18074B65831A80BA
:1041F000084B4FF440521A80014B1B681F74F8BDE6
:104200001C0900209402002026090020505C004078
:10421000023000202209002010B5244C2268137CB3
:10422000022B14BF00210121042B08BF41F0010122
:1042300021B1FFF793FF23681B7C31E0062B2ED1C1
:104240005378052B27D1137813F07F0323D192F8ED
:1042500005C0174A126892F800E012E0D8B2820056
:1042600002F1804202F5B842146840F4004040F682
:104270000F7140F0800004EA010140EA0101116081
:1042800001337345EAD30B4B4CF080021A600A4BA2
:104290001B681B6A9847094B1B689B689847082353
:1042A000024A12681374FFF7B7FE10BD1C09002004
:1042B000180900204C5C004014090020E808002088
:1042C00030B5394B1B68187810F07F0002BF5A7C5C
:1042D00022F020025A7465D0022862D19A88002AFE
:1042E0005FD11A7A002A5CD1304A10685A7A007875
:1042F00012F0800F14BF2E492D4922F0800415BF03
:1043000051F8241051F8241001F0300101F440510B
:10431000844234BF00200120002914BF014640F030
:10432000010100293DD19B7C002B3AD012F0800F77
:104330000FD01F4B53F8243003F03003102B2AD139
:10434000E4B2204600F05EFA2046302100F0D2F9B7
:1043500021E0174D55F8243003F44053B3F5805F46
:1043600019D13CB9134B20461B6893F82C1000F070
:10437000B3FA02E0E0B200F02FFA55F824204BF631
:104380008F7302EA030383F4405343F4004343F082
:10439000800345F82430084B1B685B699847002070
:1043A00000E0022030BD00BF1C09002018090020D9
:1043B000005C0040E808002014090020B34BF1B570
:1043C0001A68B34EB34B92B2D31835685B001F68BE
:1043D0002B7C092B1AD0BFB207F1005707F54057C5
:1043E0007F003C4614F8013B2B707B780A376B70DA
:1043F000B4F8030000F0A4FAA880B4F80700356808
:1044000000F09EFA288133687F889F81A04C0122AA
:1044100023681A749A895D78002A62D11A7812F09A
:104420007F022ED1092D02D1FFF7ACFC3BE0052D18
:104430000DD193F90520002A4EDB1A79002A4BD1C1
:104440001A89002A48D19B7C002B37D044E0032DE9
:104450000BD15A79012A27D11A892ABB5B7C13F028
:10446000200F21D0FFF78EFD1DE0012D1CD15A79C0
:10447000012A19D11A89BAB95B7C13F0200F13D025
:104480000AE0012A04D10B2D0ED1FFF7ABFC0AE0A4
:10449000022A09D1012D02D1FFF712FF03E0032DFB
:1044A00002D1FFF719FD48B17B4B28461B685B69B9
:1044B0009847032801D109230FE068B9734B4FF0E7
:1044C00030011A68754B92B2D3185B0000221A6053
:1044D000734B1980062300E008236D4A1268137499
:1044E000D1E0062D17D11A7812F07F0F40F08580A9
:1044F0001B79012B03D1684B1B68DB6972E0022B2F
:1045000003D1654B1B681B6A6CE0032B75D1624BB2
:104510001B685B6A66E0002D44D1998800296CD144
:10452000022A6AD1197A002967D11A7812F07F021B
:1045300003D11B89002B60D132E0012A0BD1564AEE
:10454000587A126893699847002856D123689B7C53
:10455000002B52D024E0022A4FD15A7A514812F04F
:10456000800F14BF5049504902F00F0314BF51F897
:10457000231051F82310006814BF01F0300101F43A
:104580004051007812F0700F14BF002201228342C4
:104590002CBF002302F00103002B2ED000292CD0C9
:1045A000424B20E0082D06D11B7813F07F0F08BF87
:1045B0003F4B18D021E00A2D1FD1197801F07F015F
:1045C00001291AD1997CC1B19988B1B9197AA1B9D7
:1045D000012A12D1304A587A12689369984760B913
:1045E000344B00E04BB12A4A4FF000011268002022
:1045F00051831362984700200AE0254C264B22681D
:104600001B6850781B699847032808BF236806D0A9
:104610001F4B4FF6FF711B681A8B8A4201D109228A
:1046200003E0022800D012B908221A742BE093F993
:104630000010002921DA998900910098824284BFF4
:10464000009A1A8311D88A420FD21349096891F847
:104650002C108A4201D2002105E092FBF1F001FB0F
:10466000102212B90121144A11700B4A126892F8F3
:104670002C209A83FFF772FD05E003221A740F4B7A
:104680004FF440521A80FFF7C7FCF8BD505C004061
:104690001C09002004300020E8080020023000201F
:1046A0002609002018090020005C00402D3E00086B
:1046B0005D3D0008BD3D0008940200202209002055
:1046C0004FF6F873024A00EA03031360704700BF15
:1046D000505C0040064AC0B252F820C048F68F1322
:1046E00089B20CEA03030B4342F82030704700BF45
:1046F000005C00400C4AC0B252F820C089B248F6B3
:10470000BF730CEA030311F0100F18BF83F01003FE
:1047100011F0200F18BF83F0200343F4004343F04F
:10472000800342F820307047005C00400C4AC0B261
:1047300052F820C089B24BF68F730CEA030311F4D0
:10474000805F18BF83F4805311F4005F18BF83F4B7
:10475000005343F4004343F0800342F82030704795
:10476000005C0040084AC0B252F8201048F6BF73FF
:1047700001EA030383F0300343F4004343F0800372
:1047800042F82030704700BF005C0040084AC0B2C9
:1047900052F820104BF68F7301EA030383F4405361
:1047A00043F4004343F0800342F82030704700BFD9
:1047B000005C0040074AC0B252F8201040F60F6378
:1047C00001EA030343F4004343F0800342F820303E
:1047D000704700BF005C0040094BC0B253F8202076
:1047E00012F4804F0BD053F8201040F60F7201EAFC
:1047F000020242F4404242F0800243F82020704717
:10480000005C0040094BC0B253F8202012F0400F6A
:104810000BD053F8201040F60F7201EA020242F466
:10482000004242F0C00243F820207047005C004084
:10483000074BC0B21B68C1F34E019BB203EBC00033
:1048400000F1005000F54050400049000160704701
:10485000505C0040064BC0B21B68C1F34E019BB2D6
:1048600003EBC000034B4900C3185B00196070479D
:10487000505C004004300020064BC0B21B689BB265
:1048800003EBC00000F1005000F5405040000088EC
:10489000704700BF505C0040054BC0B21B689BB224
:1048A00003EBC000034BC3185B001888704700BFC0
:1048B000505C004004300020054BC0B21B6889B238
:1048C0009BB203EBC000034BC3185B001960704739
:1048D000505C0040023000200E4BC0B21A680E4BF4
:1048E00092B2D31889B203EBC00040003E2909D927
:1048F0004B0911F01F0F01D1013B9BB29B0243F406
:10490000004305E04B0811F0010F18BF01339B0273
:1049100003607047505C004006300020064BC0B278
:104920001B689BB203EBC000044BC3185B00186804
:104930008005800D704700BF505C004006300020AD
:1049400080B2C3B2000A40EA03207047140000009E
:10495000010000002603530054004D00690063006D
:1049600072006F0065006C006500630074007200E7
:104970006F006E0069006300730000001201000206
:1049800002000040830440570002010203010000BE
:10499000040309043203530054004D003300320075
:1049A00020005600690072007400750061006C0000
:1049B000200043004F004D00200050006F007200A7
:1049C000740020002000000009024300020100C022
:1049D0003209040000010202010005240010010553
:1049E00024010001042402020524060001070582B7
:1049F000030800FF09040100020A00000007050384
:104A00000240000007058102400000007C490008C8
:104A100012000000904900080400000054490008FA
:104A20002600000094490008320000000000002029
:104A30001A000000C84900084300000004010000FB
:104A400015400008292500081540000815400008F9
:104A500015400008154000081540000815400008E2
:104A600041250008552700087D2600084D2500082F
:104A70006125000865250008C9250008ED25000806
:104A80006D2600085D26000835260008000000009D
:104A90004000000002000000000000000C000000C8
:104AA000010000004C240140E40800200000000048
:104AB00001000000000000000000000000010000F4
:104AC00000040000200000000020000000000000A2
:104AD00000000000000000000000000000000E00C8
:104AE00000000000010000001201000001000000B1
:044AF00000A24A04D2
:104AF4001A03530054004D003300320031003000DB
:104B040000000000000000000000000000100E0083
:104B14000000080048000000070F0000010000002A
:104B2400E803F4010500000099240008653B00082F
:104B3400653B0008653B0008653B0008653B0008D1
:104B4400653B0008653B0008653B00086D240008D0
:104B5400653B0008653B0008653B0008653B0008B1
:040000050800324974
:00000001FF
